:020000041000EA
:1001000008170010D1010010D9010010DB01001008
:1001100000000000000000000000000000000000DF
:10012000000000000000000000000000DD010010E1
:100130000000000000000000DF010010E1010010DD
:10014000E3010010E3010010E3010010E3010010DF
:10015000E3010010E3010010E3010010E3010010CF
:10016000E3010010E3010010E3010010E3010010BF
:10017000E3010010E3010010E3010010E3010010AF
:10018000E3010010E3010010E3010010E30100109F
:10019000E3010010E3010010E3010010E30100108F
:1001A000E3010010E3010010E3010010E30100107F
:1001B000E3010010E3010010E3010010034885464D
:1001C00000F03CF800480047E9050010081700104F
:1001D0000448804704480047FEE7FEE7FEE7FEE7E5
:1001E000FEE7FEE735030010BD01001030B50B46F9
:1001F000014600202022012409E00D46D5409D4201
:1002000005D31D469540491B254695404019154686
:10021000521E002DF1DC30BDD2B201E00270401C54
:10022000491EFBD270470022F6E710B513460A4676
:1002300004461946FFF7F0FF204610BD064C012585
:10024000064E05E0E36807CC2B430C3C984710347E
:10025000B442F7D3FFF7B6FF480600106806001057
:10026000B0B51E4CE169E369A06E03221040490954
:100270000F250D40082169408D00294903280AD027
:10028000022815D0012808461AD1A06B1040800022
:1002900024A1085814E0A36B1340D2010020012BC5
:1002A00001D0002B0CD12068104210D0084607E086
:1002B0000BA0405959003E220A40911CFFF796FFBF
:1002C000C64D2860216FFFF791FF2860B0BD206800
:1002D0001F2202404A435018F2E7C04608800440FB
:1002E000C0912100009F240040AC2700E03229008B
:1002F00020402C00604D2F0000D4300040E133003E
:100300000000000020A1070000350C00E0C810002C
:10031000C05C1500006A180040771B0080841E0036
:10032000001BB700001BB700001BB7000000000057
:1003300000000000B8B50120C2031B498B6F1A43AF
:100340008A671A4A146884431460AA249460552466
:1003500094608B67164B1A682024A2431A6000220F
:100360008A61009203E000BF009C641C0094009C22
:10037000C72CF8D98863C863CA63C863CC6B0442CE
:10038000FCD041240C601C688025AC431C604B6889
:100390000342FCD003238B66C866CA66C866CA6E71
:1003A0000242FCD00867B8BD08800440004000400D
:1003B00038820440B0B502460C880F2520462840FC
:1003C000431E2020062B14D82D032C400B252D0373
:1003D000AC4209D00522520394420AD19800054A42
:1003E000125808469047B0BD9800024B1B58104663
:1003F0009847B0BD2C060010F0B5FFB0FFB085B037
:1004000001920C4602900127B90203A8FFF70BFFE7
:10041000002013E0810003AA5050082205460AE09C
:100420002B463B40124E002B00D11E466D087540F6
:1004300003AB5D50521E002AF2D1401C39028842A3
:10044000E8D10198C0430021C943029D09E0C2B22E
:100450002B7853409A0003AB9A58000A50406D1C09
:10046000641E002CF3D148407FB07FB005B0F0BDD2
:100470002083B8ED80B58CB0416880683522019248
:100480000291039001A801461831554A90470798F8
:100490000CB080BDF0B58BB00C460646A5680120B7
:1004A000810220208D421BD86768002230462946F1
:1004B000FFF7A2FF01467219705981420BD1382013
:1004C0000090019702960395684601461831444A08
:1004D0009047069804E02020A061E1611168216244
:1004E0000BB0F0BDF0B58DB03C490C68466887682C
:1004F000322002A9C1C102A801461831384DA847CF
:1005000008980190342002A9C1C17D20C100204675
:10051000FFF76CFE059002A801461831A84708981D
:10052000019908430DB0F0BD10B58CB004463620DB
:10053000019001A801461831294A904707990029DE
:1005400000D1089962682020914201D1E161002028
:100550000CB010BDF0B58FB00F4604461F480068C0
:100560007D21C900FFF742FE0546BE6801208102D9
:1005700020208E422FD8F868029038690190786860
:100580000390002220463146FFF736FF0146A219AC
:10059000A05981421AD13220049002980590019806
:1005A000069004A8014618310D4FB8470A980290EA
:1005B00033200490039805A951C1089504A8014669
:1005C0001831B8470A980299084304E02020B8611E
:1005D000F961116839620FB0F0BDC046001100101A
:1005E000F11FFF1F0020704710B5FFF739FE0548C7
:1005F00002210160044C204680302146FFF7DAFEDC
:10060000A06110BD008004400019001002E008C87D
:10061000121F08C1002AFAD170477047002001E07C
:1006200001C1121F002AFBD17047000029050010EC
:1006300075040010E5040010550500109504001025
:10064000E505001000000000680600100011001011
:10065000080000000C0600107006001008110010C1
:10066000000600001C06001000366E0100000000AD
:04000005100001BD29
:00000001FF
